:100000000C948B0F0C94B30F0C94B30F0C94B30F90
:100010000C94B30F0C94B30F0C94B30F0C94B30F58
:100020000C94B30F0C94B30F0C948E190C94FD190F
:100030000C94B30F0C94B30F0C94B30F0C94B30F38
:100040000C94B30F0C94B30F0C94B30F0C94B30F28
:100050000C94B30F0C94B30F0C94B30F0C9444197D
:100060000C94B30F0C94B30F0C94B30F0C94B30F08
:100070000C94B30F0C94B30F0C94B30F0C94B30FF8
:100080000C94B30F0C94B30F0C94B30F0C94B30FE8
:100090000C94B30F0C94B30F0C94B30F0C94B30FD8
:1000A0000C94B30F0C94B30F0C94B30F0000000C1E
:1000B00018067E43B043F061F031B80EFC0FEE1F1E
:1000C000C033C04DC05F807F005C00082804840AF4
:1000D00000000000FFE2E7E1813000080118070C92
:1000E000078003C001E000C011001F001F003F0097
:1000F0007F00C3A301E001E07BF0FFFF00000000F0
:100100000000600C00103410306A3824E82FFC0F17
:100110002024E82F306A38103410600C00000000F2
:10012000FFFFFF9FF3FF0FC1EF8781C783008001AF
:1001300000800100800100808300808781C70FC19B
:10014000EF9FF3FF000000007077005055FC7577BB
:10015000DC7177DC7577DC7177DC7577DC7177DCE7
:100160007577DCF177DC3576DC3176DCF577DC71C0
:1001700077DC7577DC7177DC7577DC7177FC757708
:10018000005055007077000000000000FF0700FFDE
:100190000300010000010000010000010000010057
:1001A000000100000100000100000100000100004A
:1001B0000100000100000100000100000100000139
:1001C0000000010000010000010000FF0300FF0724
:1001D00000FFFFFF000000007777805755407777DA
:1001E00040777740777740777740777740777740E9
:1001F0008777402776406776402776408777407735
:100200007740777740777740777740777740777791
:10021000805755007777000000000000FF00007F46
:1002200000003F00001F00001F00001F00001F0013
:10023000001F00001F00001F00001F00001F000023
:100240001F00001F00001F00001F00001F00001FF4
:1002500000001F00001F00003F00007F0000FF00A3
:1002600000FFFFFF00003C3C3C3C3C3C0000000029
:10027000000000000000000000000000000000007E
:100280000000000000000000000000003C3C3C3C7E
:100290003C3C0000000000000000000000000000E6
:1002A000000000000000000000000000000000004E
:1002B00000000000000000000000C5B87B374607C2
:1002C0008000000000000840D7FAFFBFD60DA0C78D
:1002D000F8FF3FC60DA0EFFDFF7FEF0D100280007D
:1002E00004400CC0FFFFFFFFFF0DD0FFFFFFFFFF2B
:1002F00001E8FFFFFFFFFF0D0010000800010CE800
:10030000FFFFFFFFFF0DECFFFFFFFFFF0DE6FFFF0D
:10031000FFFFFF0D0C011000001000EAFFFFFFFFC0
:10032000FF0DECFFFFFFFFFF0DE8FFFFFFFFFF0DDD
:100330000080000F00010EE8FFFFF9FFFF0DD0FF66
:10034000FFF9FFFF01C0FFFFF9FFFF0D1000049947
:1003500000080CA0FFFFE1FFFF0DA0FFFFE1FFFF82
:100360000D40FFFFFFFFFF0D8000000000000800B0
:10037000F7DE7B7777070000018080000000000037
:1003800000000000FFFFFFFFFFFFFFFFC7F8FF3F78
:10039000C6FFFF0400000082E07F0000000000E0D4
:1003A0003F0000000000E01F0000000000E00F0020
:1003B00000000000E00F0000000000E00700000067
:1003C0000000E0070000000000E00700000000005F
:1003D000E0030000000000E0030000000000E00374
:1003E0000000000000E0010000000000E00000004C
:1003F000000000E0010000000000E000000000003C
:1004000000E0010000000000E0030000000000E048
:10041000030000000000E0030000000000E007000F
:1004200000000000E0070000000000E007000000FE
:100430000000E00F0000000000E00F0000000000DE
:10044000E01F0000000000E03F0000000000E07F2F
:100450000000000000E0FF0001808000E0FFFFFFDF
:10046000FFFFFFFF00000000000000000000000090
:10047000FEFFFFFFFF3FFEFFFFFFFF3FC00000004A
:100480000003C00000000003C00000000003C00023
:1004900000000003FEFFFFFFFF3FFEFFFFFFFF3FE7
:1004A000C00000000003C00000000003C000000006
:1004B0000003C00000000003FEFFFFFFFF3FFEFF40
:1004C000FFFFFF3FC00000000003C000000000036A
:1004D000C00000000003C00000000003FEFFFFFF9B
:1004E000FF3FFEFFFFFFFF3FC00000000003C00012
:1004F00000000003C00000000003C0000000000373
:10050000FEFFFFFFFF3FFEFFFFFFFF3FFFFFFFFF7D
:10051000FFFF0100000000C000000000008000009C
:10052000000000800100000000C01FFEFFFF7FF8F8
:100530001FFEFFFF7FF80100000000C00000000068
:1005400000800000000000803FFFFFFFFFFC3FFF36
:10055000FFFFFFFC3FFFFFFFFFFC3FFFFFFFFFFC34
:100560000000000000800000000000803FFFFFFF4F
:10057000FFFC3FFFFFFFFFFC3FFFFFFFFFFC3FFFD4
:10058000FFFFFFFC00000000008000000000008072
:100590000100000000C01FFEFFFF7FF81FFEFFFFED
:1005A0007FF80100000000C0000000000080000093
:1005B00000000080380000C0450700440000300003
:1005C00018008203000800200039040004FE4000E7
:1005D00029180082FF8300396000E1EF0701828360
:1005E00081E0E70702440C46E8F72F04383048E47E
:1005F000F36F0400C030D4FB470800003396FBD3F0
:100600000838001C36FFD90844C01373E1DC11829E
:100610003F1CF340DE11390010F3C0DF11298011B7
:10062000FBC0DF11397E1E9B40DE1182011ECBE133
:10063000D811448011F3FFD311386030F2EDDF0898
:1006400070182CF6EDDF08880423E4CD4F0804C3AE
:1006500040ECDC6F04723040689E2F0452088060CA
:10066000BF0702720400E1FF030104030082FF835D
:100670000088000004FE4000700000080020000018
:10068000000030001800000000C045070000000016
:1006900000000000C7FFFF3F00F8FF83FFFF0F00CF
:1006A000E0FF01FCFF0700C0FF00F8FF030080FF30
:1006B00000E0FF010000FF0080FF000000FE0100DD
:1006C0007E000000FC830338000000F8C70F3000F4
:1006D0000000F8FF3F00000000F0FFFF00000000F6
:1006E000F0C7FF03000000F0833F0C000000E001B2
:1006F0000000000000E0000000000000E00000003A
:10070000000000E0008001000000E001FE010000A8
:1007100000E0837F00000000E0C71F00000000F041
:100720008F0710000000F007031C000000F003001A
:100730003F000000F801C03F000000F801F07F001A
:100740000000FC01F8FF000000FE03FCFF010000B8
:10075000FF07FFFF030080FF8FFFFF0700C0FFFFC1
:10076000FFFF0F00E0FFFFFFFF3F00F8FFFFFFFF6D
:10077000FFFFFFFF367740766C706E3674077C3F64
:100780002C3F601F6C0AD81A58181802F00AC00EC5
:10079000F00ED006E008B00BD81AD818601A180668
:1007A0005C177C3D603F6C3E6E786E760E066E6721
:1007B000E400DC368016D008B00AB00AC00A181669
:1007C000EC3468366E4EE40DE262EEEC0EEE6EEE48
:1007D000EC0EE060E6EEEEEE0EEE4E66E60EE0E0CB
:1007E000E6ECEEEE0ECE6E0EEC6CE0E0EEEE8EEE93
:1007F000E07BDF03807FFF02407AEF03C07BEF01E5
:10080000C03B0B00C047EF018077EF01807FEF0115
:100810008071FE010074F0010077F600007FFE0099
:10082000007DE500007F0F00007F7F000060F70083
:100830000076DF000077FF00005FF200007DF4002B
:100840008077FE018047EB008037EB0080700F005F
:10085000007BEF01807BFE01C07BF102C05BFF02E9
:10086000C07FFE03E07BCE03FC007E00F8F93E1F54
:1008700000FCBE0FF0DD9E0F60FBD606C033DE032A
:10088000C0C31C0080F7E80100D0E6000077EE004E
:10089000000E6E0000AE4E0000F1EE000096E0008B
:1008A00080F75E0080F89E02C0F3DE03E00BA6072F
:1008B000E0FCB00300FD2E0CF8ED7F1FFCFE7E3740
:1008C000FE3C7F00FE7C7F7EBE7C7F7BFE7E3E7793
:1008D0007E7E007F7C7F1E7F007F7F7F7C7E7F7F90
:1008E0007C7C7F7FFE307F3CFE087F00F63C773EBD
:1008F000FE7E7F7EFE7E7E7FDE7E3E7B7E7E007F76
:100900007C7E3C7F006E7F3F787E7F3FFE7E7F7FD8
:10091000FE3E7F7EFE0C7700FE307F3CFE7C7F7FBC
:10092000FE7E7F7FFE7E7F7F7E7E3C777C7E007FAB
:10093000187E3C7F807C7E7FFC7D7F7FFE397F3E02
:10094000FE007F00DE3C7F3EEE7C7F7FFE7E3F7FB1
:10095000FE7E3F7FFE7E1E5FFE7E007FFE6C3E774A
:100960007C6E6E7F00767F7F1C3E7F7EFE007F3C2C
:10097000F0FDFC013F1F0000F0F7013EFF1FFF07E5
:10098000E0FFF97FFF9FF707C0FFFD7FFFCFFF0369
:10099000801FF87FFEE7FF0300C0F97D00E0FF0144
:1009A00000FCF37BFCE3F70000FEF77FFEF7FF009F
:1009B000009EF77FEFF77F0000FCEF7FDF0700006E
:1009C00000FCEF3FFFE71F0000F8E307FFF31F0005
:1009D00000001838FEB90F0000C09F7F00F8070024
:1009E00000E0DD7FFEF0030000C0BB77FF010000E8
:1009F00000C0BF7DFFFD030000809F7FFDFE010062
:100A00000000007FDFFE000000003F7F7EDE000070
:100A100000007EFF387F00000000FC3E063F000023
:100A20000000FCFE0E3F00000000007F707E000012
:100A300000007E00FE0000000000773FFF70000015
:100A40000000BF7FEFFE01000000807FFFBD0100BE
:100A500000C08F7FFEFC030000E0DF7700FC070092
:100A600000F0DD3FFCF0070000F01F00FE03000077
:100A700000F08F3FBFC30F000000C07FFFE73F00C3
:100A800000F8E17FFFF73E0000FEF37DFFF77F00F7
:100A900000FFF77E3EE0FF0000D7F77FC0E3E700EE
:100AA00080FFF33FFEE7FF01C0FF03307FCFFF0071
:100AB000C0FFF1037F9F7F008018F83FFF1F0000F9
:100AC0000067FC7FFF1DFF07E0FFFE7FFFBFFF0FFA
:100AD0000078FC3FFF9FFF0F80FFFC3FFF9EFF0F52
:100AE000E0FFF83FFF9EFF1FF0FFF19FFF9DFF1FFC
:100AF000F0FC0180FF9F7F1F70FF0180FF9FFF1FA1
:100B0000F8FFF18FFF9FFF1FF8FFF91FFF1FFF1F67
:100B1000F8FFFD3FFE1F0E0CF8FFFD3FFE0FC0006B
:100B2000F8FFFD77EE0FFF03F8FFFC6FFE87FF076E
:100B3000F0FFFC7FFCC3FF0FF0FFFCFFF8C1FB0FD1
:100B4000F0FFFEFF00E0F70FF0FFFEFF00E0FF0701
:100B5000F0FFFE7FC0C3FF07F07FFE7FE087FF0747
:100B6000E03FFE7FF88FFF07C007FE7FFC1FFF07F7
:100B70000000FE7FFC1FFF0F0078FC7FFC1FFF0FB3
:100B8000C0F3DC7FFE9FFF0FE0F7DC7FFE9FFF1FBF
:100B9000F0EFFD7FFE9FFF1FF0EFFD7FFEBFFF1F09
:100BA000F0FFF93FFF3FFF0FF0FFF13FFF3FFF0F67
:100BB000F8FF011FEF3FFF0FF8FF0100DF3FFF0EBF
:100BC000F8FFE100DF3FFE07F8FFF11F7F3FE0077E
:100BD000F8FFF93FFF3FC003F0FFF93FFF3F0E0072
:100BE000F0FFF97FFF1F1F00F0FFFD7FFF1FFF03D6
:100BF000F0FFFD7FFF1FFF07F0FF3D7FFF8FFF0F1F
:100C0000F0FFFD7EFE87FF1FE0FFFD7D7C80FF1F64
:100C1000C0FFFC7F0080FF1F007CFC7B0087FF1F64
:100C20000000FC7FFC8FFF1F8003FC7FFC8FFF1FF9
:100C3000E07FFC7FFE9FFF0FE0FFFC7FFE9FBF1F5A
:100C4000F0FFFC7FFE9F7F1FF0FFF93FFE9F7F1F9D
:100C5000F0FFF93FFE9FFF1FF0FFF11FFF8FFF0F17
:100C6000F8FFE101FF97FF0FF8FF0100FF17FF0FEB
:100C7000F8F7010EFF1BCE07F8FFE13FFF1F00034F
:100C8000F8FFF17FFF1F0000F8FFF97FFF1F7800DA
:100C900078FFF97FFE1FFE01F0FEFD7FFE1FFF0FB4
:100CA000F0FFFD7FFE8FFF0FF0FFFD7FFE87FF1F30
:100CB000F0FFFD7F1C80FB1FE0FFFDFF0080FF1F9A
:100CC000C0FFFDFFC087FF1FC0FFBCFFF88FFF1FE5
:100CD0000078C8FFFC8FFF1F0000FC7FFE9FFB1FFA
:100CE000C007FC7FFE9FFF1FE07FFC7FFE9FFF0F82
:100CF000F0FFFC7FFE9FFF0FF0FFF87FFEBFFF0FAE
:100D0000F0FFF97FBEBFFF0FF0FFF13FDE3F7F0F27
:100D1000F8FE013EDF3FFF0FF8FE0130EF3FFF0717
:100D2000F8FDF103EF7FFE07F8FBF90FEF7FFC03FF
:100D3000F8FFF91FFF7FFC00F8FFFD7FFF3F380041
:100D4000F8FF7D7FFF1F0003F8FF7D7FFE1FC007B8
:100D5000F8FFFD7EFE0FFE0FF8FFFD7FFE07FF0F81
:100D6000F0FFFD7FFC80FF0FF0FFFC7F0080FF0F96
:100D7000F0FFF87F008EFF0FE03FF83FF89FFF1F66
:100D8000C003F83FFCBFFF1F0000FC3FFEBFEF1F8A
:100D9000FF3FFE7FFE3FFE7FFE7F7F7FFF7FFF7E68
:100DA000FCFFBE7FFFBFFF3FF8FDFE3FFF3EFF0F92
:100DB000F8FF7E7FF7BFFF1EFCFDFE7CFFBFFF3EFE
:100DC000FE7FFF7FFE3FFF7FFF3FFE3FFC0FFE7F6A
:100DD000202074726561737572654974656D4D612B
:100DE000736B203D2000202061747461636B734637
:100DF0006972737420202020203D2000202064612F
:100E00006D616765426F6E75732020202020203D44
:100E100020002020686974706F696E747320202030
:100E200020202020203D200020206D6F6E737465EF
:100E300072547970652020202020203D2000290058
:100E40002C20002020706F736974696F6E20202041
:100E50002020202020203D20280000000000003E0F
:100E60005B4F5B3E3E6B4F6B3E1C3E7C3E1C183C1A
:100E70007E3C181C577D571C1C5E7F5E1C00183C76
:100E80001800FFE7C3E7FF0018241800FFE7DBE7BF
:100E9000FF30483A060E2629792926407F050507A6
:100EA000407F05253F5A3CE73C5A7F3E1C1C080802
:100EB0001C1C3E7F14227F22145F5F005F5F0609C7
:100EC0007F017F006689956A606060606094A2FF20
:100ED000A29408047E040810207E201008082A1C12
:100EE00008081C2A08081E101010100C1E0C1E0CDE
:100EF00030383E3830060E3E0E060000000000007E
:100F0000005F00000007000700147F147F14242AEC
:100F10007F2A1223130864623649562050000807BE
:100F20000300001C2241000041221C002A1C7F1CDF
:100F30002A08083E080800807030000808080808E1
:100F4000000060600020100804023E5149453E0048
:100F5000427F400072494949462141494D331814A6
:100F6000127F1027454545393C4A494931412111F5
:100F700009073649494936464949291E00001400E7
:100F8000000040340000000814224114141414140A
:100F9000004122140802015909063E415D594E7C68
:100FA0001211127C7F494949363E414141227F411D
:100FB00041413E7F494949417F090909013E41417B
:100FC00051737F0808087F00417F41002040413F66
:100FD000017F081422417F404040407F021C027F75
:100FE0007F0408107F3E4141413E7F090909063ECA
:100FF0004151215E7F091929462649494932030199
:101000007F01033F4040403F1F2040201F3F4038AA
:10101000403F631408146303047804036159494D85
:1010200043007F4141410204081020004141417FBB
:101030000402010204404040404000030708002031
:10104000545478407F284444383844444428384431
:1010500044287F385454541800087E090218A4A468
:101060009C787F0804047800447D40002040403D87
:10107000007F1028440000417F40007C0478047801
:101080007C080404783844444438FC182424181894
:10109000242418FC7C0804040848545454240404F0
:1010A0003F44243C4040207C1C2040201C3C4030DD
:1010B000403C44281028444C9090907C4464544C0C
:1010C0004400083641000000770000004136080067
:1010D00002010204023C2623263C1EA1A161123A11
:1010E0004040207A3854545559215555794121545E
:1010F000547841215554784020545579400C1E5263
:101100007212395555555939545454593955545406
:10111000580000457C410002457D420001457C406D
:10112000F0292429F0F0282528F07C54554500208A
:1011300054547C547C0A097F493249494932324827
:10114000484832324A4848303A4141217A3A42408E
:101150002078009DA0A07D39444444393D40404062
:101160003D3C24FF2424487E4943662B2FFC2F2B33
:10117000FF0929F620C0887E0903205454794100D4
:1011800000447D413048484A32384040227A007A53
:101190000A0A727D0D19317D2629292F2826292931
:1011A000292630484D402038080808080808080853
:1011B000382F10C8ACBA2F102834FA00007B00007A
:1011C00008142A142222142A14089500220095AA31
:1011D000005500AAAA55AA55AA000000FF00101049
:1011E00010FF00141414FF001010FF00FF1010F087
:1011F00010F0141414FC001414F700FF0000FF009A
:10120000FF1414F404FC141417101F10101F101FE7
:101210001414141F00101010F0000000001F101014
:1012200010101F10101010F010000000FF10101010
:10123000101010101010FF10000000FF140000FF2D
:1012400000FF00001F10170000FC04F41414171016
:10125000171414F404F40000FF00F7141414141409
:101260001414F700F7141414171410101F101F147F
:101270001414F4141010F010F000001F101F0000E0
:10128000001F14000000FC140000F010F01010FF0C
:1012900010FF141414FF141010101F00000000F0B1
:1012A00010FFFFFFFFFFF0F0F0F0F0FFFFFF000086
:1012B000000000FFFF0F0F0F0F0F38444438447C2D
:1012C0002A2A3E147E02020606027E027E02635530
:1012D0004941633844443C04407E201E2006027E7F
:1012E000020299A5E7A5991C2A492A1C4C72017291
:1012F0004C304A4D4D303048784830BC625A463DFB
:101300003E494949007E0101017E2A2A2A2A2A44AF
:10131000445F444440514A444040444A51400000E4
:10132000FF0103E080FF000008086B6B08361236EF
:101330002436060F090F06000018180000001010D0
:10134000003040FF0101001F01011E00191D17128E
:10135000003C3C3C3C0000000000080B0002020284
:101360000000090400000102020000052400100131
:1013700005240101010424020605240600010705D5
:10138000810310004009040100020A000000070563
:101390000202400000070583024000000403090424
:1013A00012010002EF0201404123368000010102D8
:1013B000030141726475696E6F204C4C43004142D9
:1013C0004C3133303900F0F89C8E8783878E9CF83F
:1013D000F00000FEFF0303030303070EFCF8000008
:1013E000FEFF0303030303070EFCF80000FFFF00EA
:1013F000000000000000FFFF0000FEFF83838383E6
:1014000083C7EE7C380000F8FC0E07030303070EC9
:10141000FCF800003F7FE0C08080C0E07F3FFFFF1E
:1014200001010101010101FFFF0000FFFF0C0C0C95
:101430000C1C3E77E3C100007FFFC0C0C0C0C0E00D
:10144000703F1F00001F3F70E0C0C0C0E0703F1F32
:1014500000007FFFC1C1C1C1C1E3773E1C00001F76
:101460003F70E0C0C0C0E0703F1F000000000001FE
:10147000FFFF01000000D5F08D14A1C881CFD9F184
:10148000AF200021007F2B203C566963746F727976
:1014900020636F6E646974696F6E3E20666F756E4F
:1014A0006421002B203C576F6F64656E2053686980
:1014B000656C643E20666F756E6421002B203C5283
:1014C000757374792053776F726420666F756E64DC
:1014D0003E20666F756E6421002B203C506F74694E
:1014E0006F6E3E20666F756E6421002B203C4B654D
:1014F000793E20666F756E6421002B203C52696E28
:1015000067206F66204F7269656E746174696F6ED3
:101510003E20666F756E6421002B203C416D756C1A
:101520006574206F6620547275652053696768740E
:101530003E20666F756E6421002B203C436F6D70FA
:101540006173733E20666F756E6421006F70656E07
:10155000436865737428290020206D6F646966698B
:101560006564506F7356616C75652020203D2000C6
:1015700020206D6F646966696564506F7369746972
:101580006F6E2020203D200020206E657749746515
:101590006D2020202020202020202020203D200001
:1015A00020206E6578745374617475732020202038
:1015B00020202020203D2000202063757272656E5F
:1015C000745374617475732020202020203D200006
:1015D000202063757272656E74506F736974696FE1
:1015E0006E202020203D2000494E54455241435456
:1015F000494F4E5F494E464F003E002B204D6174CF
:101600006368696E6720656E74727920666F756EA7
:1016100064203C00445878005800075878001200B5
:101620000778580012001480A00114A21880A0406E
:1016300018A02CC8C8802CC84058780012004078E8
:10164000580012EA6880A00268A36E80A0146EA2FF
:10165000C0587800C300C0785800C4EAC780A00909
:10166000C7A0C8580000CA00CB380000CB00F15812
:10167000780091EBF17858009100F3587800C3EAB4
:10168000F3785800C400FD5878007D00FD785800BC
:101690004D003C2D20706C617965724174746163FA
:1016A0006B002A2A2A204E6F206D6F6E737465724C
:1016B000202D206E6F20666967687421002D3E2002
:1016C000706C6179657241747461636B0029002CE0
:1016D00020002A2A2A204E6F20656E7472792066B7
:1016E0006F756E6420666F72206D6F6E73746572B5
:1016F00020617420706F736974696F6E2028002BED
:10170000204D6F6E7374657220666F756E64210074
:10171000292029002C200066696E644D6F6E737459
:1017200065722820706F736974696F6E203D202880
:101730000029002C2000202076616C756520202077
:1017400020202020203D2028005350494E4E455255
:101750000054454C45504F52544552002020737060
:10176000656369616C4658202020203D20002A6373
:10177000656C6C203D20004D6F6E73746572206443
:101780006566656174656421002A63656C6C203D43
:10179000200001B7050D01D7050B022A02000297B0
:1017A000030029002C2000706C6179657220706F35
:1017B000736974696F6E203D202800206174207069
:1017C0006F736974696F6E20002B20706C616369A0
:1017D0006E67206D6F6E73746572200073697A6531
:1017E0006F66282044554E47454F4E2029203D2006
:1017F0000073697A656F6628206D6F6E7374657209
:1018000053746174732029203D200073697A656FD9
:101810006628204D4F4E535445525F535441545304
:101820002029203D2000302C03FA0100282C03FC45
:1018300001003C6C28070100532C05FC01006D4C95
:101840000F040060874C0C030060A38C0FFF013075
:10185000AB8C0F010030E34C0C030060ED4C0C032B
:101860000060181818181818180018180000000040
:1018700000180000EA0082180018831800181818D1
:101880000018000018001800000000180018C81800
:1018900000180018000018001800001800180018A0
:1018A0000018581800185A0018000018001800EA0C
:1018B0000018180000001818000018180018181850
:1018C0001818000018000000001880180000000020
:1018D00082EA18180000181818181818181818EBA9
:1018E0001818181000001800180018001800000040
:1018F00000001800181018000000000018EB180075
:101900001800180018801800180018001800180097
:10191000000018000018180000000000181800004F
:1019200018005B1810EAEA0018805A00003A001804
:101930000000000000181800000000001800001847
:1019400000181818000018001800180018001800D7
:101950000000005B185B1800000000001818185BFE
:1019600018003C2D206D6F6E737465724174746144
:10197000636B2829002020506C61796572277320E1
:10198000686974706F696E7473203A20002D3E2070
:101990006D6F6E7374657241747461636B28290096
:1019A0002C20646973706C6179586F724566666546
:1019B0006374203D20002C20436F6D706173732091
:1019C0003D20002C204B657973203D20002C2049C0
:1019D00074656D73203D20002C2041726D6F75720F
:1019E000203D20002C2044414D203D20002C20484B
:1019F00050203D20002C20646972203D20002C20C6
:101A0000706C6179657259203D20002020706C61F6
:101A100079657258203D20002020006F63006363C9
:101A2000004620002320006D690072740062680087
:101A3000736B00572000442000573C00573E003C89
:101A40004000407600403E00405E00FFFFFFFF5533
:101A5000AA8824000000000000000081307FED30E3
:101A60007312304E21303F4C1C1005010205C21C80
:101A70006C200007010205B405E81C0806010205F8
:101A800064043820080701030CA40258101801014F
:101A900002088402781018010102086402801820EC
:101AA00003010308D4018C182003010308D401A00A
:101AB0001820030103084401C80C2003010263FC41
:101AC000002C142802010263AC0000000000004159
:101AD0000000000000200000010010400000400055
:101AE0000000002205000040000002000800100273
:101AF00000001040000041000201000000000080D2
:101B000010114100000000000140004800120400D4
:101B10000000000000108200000041400040001260
:101B20000100080100000000000100118090020186
:101B300000001120000400000008424000100100D5
:101B400002401001014002000000011012010000DB
:101B500040000041100240000000A854010000A80D
:101B6000000001001200100001000001200240806E
:101B70000001000000101201000040002041108010
:101B800000200200001041800208000021100080A7
:101B900000040100084100024010200080420100C2
:101BA0000040000040100042401000000208000009
:101BB0001100080110010000008100000000440035
:101BC0004000011002400008400010020002000026
:101BD000000000004900000000000000021000802A
:101BE00000000001001000000000900D000307003D
:101BF000FF0008900D5C5F0700010408D00A000395
:101C00000701FF5458D00A045B0701000058D00AAE
:101C10005C5F0701010058700904190701FF002CDF
:101C20007009465B070101162CC00800192502FF48
:101C3000122CC0081A45250200002CC008465F255A
:101C40000201002C68081A242502FF001668083BD0
:101C5000452502010B16F007000E2502FE001EF0BE
:101C600007515F2502020F1EC407000E3403FE0752
:101C700016C4070F243403FF0016C407253A3403A3
:101C8000000016C4073B503403010016C407515F1F
:101C90003403020016B00725293403FF000AB007F9
:101CA000363A340301050A74070F1D3403FE001E83
:101CB000740742503403020F1E00000000070000AA
:101CC0000060003E00000000C107000080007804B2
:101CD00000003F800B0000C0030A0000007C0800E9
:101CE00000008010000000801000000000060000CE
:101CF00000800F000000F0010000003C0040E00107
:101D0000070060F00F7D0820380FF55D2D3829554C
:101D10001300FCAF030000FC29F90F003C0FD91899
:101D200000380F35302DF807776620E0071369601B
:101D3000000076664000003030000000D818000037
:101D400000F80F0000000000000000000000FFC1CC
:101D5000FFFFFFFF00F8FFFF7F0080FBFFFF000099
:101D6000F0FFFF3F00F0FFFFFF03F0FFFFFF7FE00A
:101D7000FFFFFF7FE0FFFFFF7FE0FFFFFF07E0FFC8
:101D8000FFFF01E0BF0FFE00FC1F077080E30F03A1
:101D900060002280034000008001000000C00100BC
:101DA00000E0FF010000C0FF01400000C001600032
:101DB00000800370000080037000000F0FF8000027
:101DC0001FFFFF0100BFFFFF0380FFFFFF03C0FFF6
:101DD000FFFF03E0FFFFFFFFFFFF20383E38203EFC
:101DE0001C1C0808020E3E0E0208081C1C3E1800AF
:101DF00080DDDDDDDDDD0C018000000000800C8178
:101E0000100C280E04001881901E30703F8630BFE1
:101E10009F3E180E04893081907C2C303F8618B587
:101E2000103E064808020C018F1E0030308F0C391E
:101E3000800C1E3898821808860C22402C801431A1
:101E4000281E5E7828003E818E3E2200808F22B9B7
:101E5000A07C1E00008800A0AE3E00003F8000F97C
:101E6000021E067C900E0001AC0C290A3F82000184
:101E7000A00C5130008F0000A41E29489882000158
:101E80002A3E0630240600019E7C00383C8B22004E
:101E9000803E1C40048A3E010C1E22781E00140164
:101EA0008E0C2A00A48B18008A0C227818800C65EE
:101EB000801E1C082C800C55063E00702800180857
:101EC0008A7C0700008030418C3E7D3038803000B5
:101ED000801E5748048018650E0C007E04001C54B8
:101EE0008200000000800C488CDDDDDDDDDD0001BE
:101EF00001020102020301020203020303040001C2
:101F000003000F0007050400000203000102043073
:101F100078303000621C11241FBECFEFDAE0DEBF44
:101F2000CDBF11E0A0E0B1E0EAE2F5E402C0059027
:101F30000D92AC33B107D9F727E0ACE3B1E001C0B3
:101F40001D92A930B207E1F71FE0CBE8DFE004C043
:101F50002197FE010E948D22CA38D107C9F70E943D
:101F60007F1C0C9493220C940000E5EBF2E0A0E0BF
:101F7000B8E000800EBC8111012C1197A0FDFDCFAF
:101F80000192B9F70DB408953F924F925F926F920C
:101F90007F928F929F92AF92BF92CF92DF92EF92F9
:101FA000FF920F931F93CF93DF93D9011796ED9074
:101FB000FC901897002351F013962C9113971196CB
:101FC0009C911197299FE00CF11C112450E0FA011B
:101FD000E55FF04E9491FA01E95FF04E7491FA01D9
:101FE000ED5FF04EE491671708F482C0E61708F43D
:101FF0007FC0999F602C11244A0F5B1FFA01538008
:10200000292F30E0F901E250F14E449112969C9054
:1020100012971396AC918A2E880C880C880C890C28
:10202000671B592F550F550F550F659F602D1124B4
:10203000A89FF0011124E29F6001E39FD00CF29F62
:10204000D00C1124C8E0D0E080E011E0A92CB12C24
:1020500050E0B0E0691578F1681568F5262F30E09A
:102060002A193B0937FF02C0295F3F4F73E03595BE
:1020700027957A95E1F72C0D3D2D311D2E0D3F1D35
:10208000712C70E0F62FF7704F2E9715B9F0F9010B
:102090003490E32DF0E0042C02C0F595E7950A9406
:1020A000E2F7E423F523E251F14EE4917E0F2A0F8B
:1020B0003B1F7394EACF70E00111762D690F7515FF
:1020C00008F0812B110F219709F0C4CFDF91CF9138
:1020D0001F910F91FF90EF90DF90CF90BF90AF9046
:1020E0009F908F907F906F905F904F903F9008955A
:1020F000802F8195EBCFDC01FB018C9187FF02C023
:10210000805F8C938C91803114F080518C9380810E
:1021100087FF02C0805F80838081803114F080510E
:10212000808308950F93CF93DF9300D0CDB7DEB7B0
:10213000013041F130F0023009F1841B8983621BC8
:1021400024C0641B6A83820F8983BE016E5F7F4F48
:10215000CE0101960E947B108A8120E18202C0019B
:1021600011242981820F911D27FD9A958F589E4F2A
:102170000F900F90DF91CF910F910895640F6A83B4
:10218000821BE2CF840F8983620F6A83DECFFC015A
:1021900080916401882311F13FB7F89482E0809325
:1021A000E9002091F200822F90E01816190614F42D
:1021B00081E090E0882339F0289844E64093630159
:1021C0004091F1004083222339F02091F200211147
:1021D00003C02BE62093E8003FBF08958FEF9FEFE9
:1021E00008952FB7F89483E08093E9009091E80078
:1021F000892F807295FF04C09091F20080E4891BC2
:102200002FBF0895E1E0F0E00E941711319728F008
:1022100068517C4F8F4F9F4FF9CFAB01FC010E945B
:102220001711641775078E079F07C8F30895A3E574
:10223000B1E02FB7F8947D918D919C9166B52FBF39
:10224000A89B05C06F3F18F47F5F8F4F9F4F22E020
:10225000660F771F881F991F2A95D1F708958091DF
:102260005B0181110DC082E08093570184E080936F
:10227000580110925A011092590181E080935B013C
:1022800087E591E00895AB01FC010E9417114150D0
:102290005109E109F10928F068517C4F8F4F9F4F98
:1022A000F6CFAB01FC010E941711641775078E076A
:1022B0009F07C8F3089540913E0150913F0120913E
:1022C0003C0130913D0142175307B4F49091E8006E
:1022D0009570E1F39091E80092FD19C08093F100B0
:1022E00080913E0190913F0101968F739927892B30
:1022F00019F48EEF8093E80080913E0190913F01A8
:10230000019690933F0180933E0181E0089580E023
:102310000895DF92EF92FF920F931F93CF93DF9375
:10232000D82E8A01EB017B01E40EF51ECE15DF05E8
:1023300059F0D7FE12C0FE0184910E945B112196D4
:102340008111F4CF0FEF1FEFC801DF91CF911F91E3
:102350000F91FF90EF90DF9008958881EECF0F935B
:102360001F93CF93DF931F92CDB7DEB782E08983AF
:1023700042E450E06AE573E180E80E9489110E941E
:102380002F11DC0112960D911C910115110589F098
:10239000D801ED91FC910280F381E02DBE016F5FC9
:1023A0007F4FC801099597FD04C0F801008511858C
:1023B000ECCF89810F90DF91CF911F910F910895FC
:1023C000615030F02091F100FC0120830196F8CF9C
:1023D000289884E6809363010895AF92BF92CF92CC
:1023E000DF92EF92FF920F931F93CF93DF936C01D5
:1023F0007B018B01040F151FEB015E01AE18BF08B6
:10240000C017D10759F06991D601ED91FC91019067
:10241000F081E02DC6010995892B79F7C501DF917F
:10242000CF911F910F91FF90EF90DF90CF90BF90D1
:10243000AF9008958F929F92AF92BF92CF92DF920A
:10244000EF92FF920F931F93CF93DF936C017B0169
:102450008A0180910B01882309F458C0809164019E
:10246000882309F453C08091420180FF05C0809108
:10247000E00082608093E000E801B12C8AEFA82E92
:1024800093E0892E2AE3922E209711F4BB20B9F114
:102490000E94F110811106C0AA94AA20B9F10E94ED
:1024A0000211F2CF8C171D0611F00CF08C2F9FB784
:1024B000F8948092E9002091E80025FD02C09FBFBA
:1024C000E3CF282F30E0C21BD30BF701815020F05F
:1024D00041914093F100FACFE20EF31EBB2021F0B0
:1024E0009092E800B12CEBCF8091E80085FDE7CF1A
:1024F0009092E800BB24B394209709F3F3CF5D9842
:1025000084E680934101101611063CF081E090E0D2
:10251000F6019383828310E000E0C801DF91CF9140
:102520001F910F91FF90EF90DF90CF90BF90AF90F1
:102530009F908F900895CF93DF931F92CDB7DEB712
:102540006983DC01ED91FC910280F381E02D41E093
:1025500050E0BE016F5F7F4F09950F90DF91CF91E3
:102560000895EF92FF920F931F93CF93DF938C0107
:102570007B01D0E0C0E0F701EC0FFD1F6491662302
:1025800039F0C8010E949B12892B11F02196F3CFDC
:10259000CE01DF91CF911F910F91FF90EF900895A1
:1025A00083E08093E9008091F200882319F08AE3A8
:1025B0008093E80008950E94F11090E00895CF9371
:1025C000DF931F92CDB7DEB7FC018485958597FD1B
:1025D00008C02FEF3FEF358724870F90DF91CF9111
:1025E0000895CE0101960E94C710019719F48981C0
:1025F00090E0F3CF8FEF9FEFF0CF0F931F93CF9328
:10260000DF931F92CDB7DEB78C01FC0184859585E1
:1026100097FF0BC0CE0101960E94C710019771F47D
:10262000898190E0F80195878487F80184859585F4
:102630000F90DF91CF911F910F9108958FEF9FEF32
:10264000F1CFFC018485958597FD0BC09FB7F89469
:1026500082E08093E9008091F2009FBF90E00196B4
:1026600008959FB7F89482E08093E9008091F2008A
:102670009FBF90E008952D9A0895BC0190E080E0FE
:102680000C9443118FB18095807F669B88601C9B62
:1026900084600895AF92BF92CF92DF92EF92FF9243
:1026A0000F931F93CF93DF936D3079F0C091440166
:1026B000D09145016A30B1F4109247011092460161
:1026C0002896D0934501C093440181E090E0DF91CA
:1026D000CF911F910F91FF90EF90DF90CF90BF901F
:1026E000AF900895409146015091470185E0689F61
:1026F000F0011124E65AF14F9A01C12C80E1E82E35
:10270000A5E070E0CA1621F0CF0101967491FC019A
:1027100010E000E0B72FB170DB2E20383105D0F487
:10272000CE01800F911F80349105A0F461E081FDFE
:1027300064E080FD660F82FD6295887FE89ED0018F
:102740001124A20FF62EAB54BD4F8C91DD20A9F0C1
:10275000862B8C9376950F5F1F4F08301105D1F6AD
:10276000C3942F5F3F4F86E0C812CACF4A5F5F4FC6
:102770005093470140934601A8CFF0948F21E9CFB1
:10278000CF93C82F0E944213982F9C2381E09C1363
:1027900080E0CF91089580E00C94B50F64E670E07E
:1027A00080E090E00C944311BC0185EB96E00C9422
:1027B000B112209149019091480130E8939FA00106
:1027C0001124E0914B01F0914C01E40FF51FE20F51
:1027D000F11D808380914A01882389F09F5F9830A2
:1027E00018F4909348010895109248012F5F27FD37
:1027F00003C02093490108951092490108952F5F65
:1028000027FFF7CF109249019F5F983050F3109245
:1028100048010895089590E080E00895FB0101903B
:102820000020E9F73197AF01461B570B0C941A12A1
:102830008F929F92AF92BF92EF92FF920F931F934E
:10284000CF93DF93CDB7DEB7A1970FB6F894DEBF75
:102850000FBECDBF7C01FA01CB0119A2223008F4D2
:102860002AE08E010F5D1F4F822E912CB12CA12CDE
:10287000BF01A50194010E946B22F901CA016A30CF
:102880000CF5605DD8016E938D01232B242B252B35
:1028900079F790E080E0109721F0BD01C7010E9418
:1028A0000E14A1960FB6F894DEBF0FBECDBFDF9118
:1028B000CF911F910F91FF90EF90BF90AF909F909D
:1028C0008F900895695CDECF61E371E00C940E1483
:1028D0000F931F93CF93DF93EC010E94B1128C01F1
:1028E000CE010E946414800F911FDF91CF911F9140
:1028F0000F910895BC0185EB96E00C9468141F932A
:10290000CF93DF9300D000D01F92CDB7DEB7182F42
:1029100045E050E06FE07FE1CE0101960E944C223D
:10292000812F90E024E0959587952A95E1F78A30EC
:10293000C0F4805D8B83812F8F708A30A0F4805D1E
:102940008C83BE016F5F7F4F85EB96E00E940E1473
:102950000F900F900F900F900F90DF91CF911F91DC
:102960000895895CE7CF895CEBCF482F50E070E099
:1029700060E02AE085EB96E00C941814CF93DF9387
:102980000E94B514EC0185EB96E00E9464148C0F54
:102990009D1FDF91CF910895CF92DF92EF92FF922A
:1029A0000F931F93CF93DF936B01072E000CEE085C
:1029B000FF0877FF1BC0EC016DE20E949B128C01A7
:1029C00044275527BA014C195D096E097F092AE091
:1029D000CE010E941814800F911FDF91CF911F919B
:1029E0000F91FF90EF90DF90CF9008952AE0B7010C
:1029F000A601DF91CF911F910F91FF90EF90DF9093
:102A0000CF900C941814CF92DF92EF92FF920F9315
:102A10001F93CF93DF9381E7E82E81E0F82ED0E07B
:102A2000C0E0670110E000E0F60191916F01209194
:102A30006501022E000C330B0217130709F0C4C006
:102A400020916601022E000C330BC217D30709F048
:102A5000BBC08091670165E47AE1813051F068E4A0
:102A60007AE1813030F062E47AE1823011F06FE394
:102A70007AE185EB96E00E94B1120F5F1F4F0031A3
:102A8000110591F685EB96E00E9464142196F0E121
:102A9000EF0EF11CC031D10521F685EB96E00E94C6
:102AA00064146BE07AE185EB96E00E94B1126091CC
:102AB0006501062E000C770B85EB96E00E94CC1486
:102AC0006EEF79E185EB96E00E94B11260916601AC
:102AD000062E000C770B85EB96E00E94CC1465EF78
:102AE00079E185EB96E00E94B112809167010E9426
:102AF000B5146DEE79E185EB96E00E94B11260911C
:102B00006801062E000C770B85EB96E00E94CC1432
:102B100064EE79E185EB96E00E94B1126091690163
:102B2000062E000C770B85EB96E00E94CC1468ED26
:102B300079E185EB96E00E94B11260916A01062E60
:102B4000000C770B85EB96E00E94CC146DEC79E1DC
:102B500085EB96E00E94B11280916B010E947F1478
:102B600063EC79E185EB96E00E94B11260916B0114
:102B700063FB662760F970E085EB96E00E94CC1459
:102B800066EB79E185EB96E00E94B11260916B01F2
:102B9000617070E085EB96E00E94CC1460EA79E108
:102BA00085EB96E00E94B11280916D010E94B514F0
:102BB00085EB96E0DF91CF911F910F91FF90EF9001
:102BC000DF90CF900C946414892F8C7F6CE37AE1B2
:102BD000883509F44ECF69E37AE1883709F449CFA3
:102BE00066E37AE1883309F444CF63E37AE194FD44
:102BF00040CF60E37AE19C3409F43BCF6DE27AE1A7
:102C00009C3609F436CF6AE27AE19C3209F431CF7E
:102C100067E27AE19C3809F42CCF64E27AE1883EDD
:102C200009F427CF61E27AE1883C09F422CF6EE112
:102C30007AE1803809F41DCF6BE17AE1803A09F43A
:102C400018CF68E17AE115CF0F931F93CF93DF93ED
:102C5000EC010E94CC148C01CE010E946414800F00
:102C6000911FDF91CF911F910F910895BC0185EBCA
:102C700096E00C942416CF93DF93EC0163E47EE09E
:102C800085EB96E00E94B11268816F7070E085EB71
:102C900096E00E94CC1460E47EE085EB96E00E9412
:102CA000B112688162956F7070E085EB96E00E94CA
:102CB000CC146EE37EE085EB96E00E94681468E237
:102CC0007EE085EB96E00E94B11289810E947F141C
:102CD00062E17EE085EB96E00E94B1126A81062EE9
:102CE000000C770B85EB96E00E9424166CEF7DE0DC
:102CF00085EB96E00E94B1126B81062E000C770BDB
:102D000085EB96E00E94241666EE7DE085EB96E06A
:102D10000E94B1128C8164E371E0882311F067E3B3
:102D200071E085EB96E00E940E1485EB96E00E9420
:102D3000641460ED7DE085EB96E00E94B1128D8118
:102D40000E94BE1485EB96E0DF91CF910C94641441
:102D5000BC0185EB96E00C94CC142F923F924F92DD
:102D60005F926F927F928F929F92AF92BF92CF921B
:102D7000DF92EF92FF920F931F93CF93DF93CDB724
:102D8000DEB76D970FB6F894DEBF0FBECDBF70E211
:102D9000272E33243394D12CC12CC88EADEAB2E057
:102DA000E8E01D92EA95E9F780916501E0906601FF
:102DB0000E2C000CFF08E80EF11C87FDFA948091A0
:102DC0006701E80EF11CF1E0EF22FF246AEEA62E67
:102DD0006BE1B62E49E050E0B501CE010A960E94A3
:102DE0004C228A859B85892B09F4E7C08C85082EA7
:102DF000000C990BC816D9060CF4DBC08D85082E83
:102E0000000C990B8C159D050CF4D3C00091670143
:102E100028894F8560916601809165010E9492101A
:102E2000DC018C9184FFC5C02E85822F022E000C00
:102E3000990B54E0959587955A95E1F72F702F5F80
:102E4000281B3C85488D431BE989E114F104A9F056
:102E5000E0953A89E30FE41B3E2F2303F001112490
:102E60004A855B85E40FF51FDC01A355BD4F21505A
:102E700030F084918D933196FACFE40FEDCF1F851A
:102E80009101EF2821F420E231E022193309ADEA63
:102E9000B2E0BF8BAE8B90E080E0588D51702B5329
:102EA000354E4C91EF85EE0FE50F60917001E60F06
:102EB000FF27FF1FE55BF54EE491E423853030F0FA
:102EC000E11104C0F901E80FF91FE491ED930196B7
:102ED0008830910531F71D8A1C8AE12FF0E0FD8FC3
:102EE000EC8F112309F4BDC04C8C5D8C2C893D897D
:102EF000421A530AC201880F991F840D951DDC01E7
:102F0000A55AB54EBB8FAA8F47E6A42E4AE1B42E30
:102F100049E050E0B501CE0101960E944C22EA80C2
:102F2000F12C042C02C0F594E7940A94E2F78A8C01
:102F30009B8CBFEFBB8B37017724F401F491F98FA1
:102F40008F2FFF0F990B9C0126193709C216D30644
:102F50000CF47DC0860D971DC816D9060CF077C0FD
:102F6000009167012B89412F609166018091650175
:102F70000E949210DC018C91282F2C7F99812913BB
:102F800066C081FF1CC090916701982790FD17C013
:102F9000B9E0AB0EB11CEAECFAE1EA15FB0509F069
:102FA000B7CF11502C893D892F5F3F4F3D8B2C8B24
:102FB00098CF89E0A80EB11C0DCF13E061CF2F850B
:102FC000022E000C330B4216530631F484FD04C06C
:102FD000FB89FF2309F445C02DEA822E22E0922EC0
:102FE000712C288DE20E398DE31A01E09E012F5FCE
:102FF0003F4F412F672D8E2D0E94C40FF82ED40114
:103000008C918F218C9300E09E012F5F3F4F412FC9
:10301000672D8E2D0E94C40FE09170019F85E90FEE
:10302000FF27FF1FE55BF54EE491E823113029F4FB
:10303000F09480916E01F822EF25D4018C91E82B59
:10304000ED934D017394B8E07B12CFCFA1CFEFEF9A
:103050008E1A9E0AFB89FF5FFB8BF23009F06DCF61
:1030600097CFAE89BF899D91BF8BAE8B80916D014B
:1030700089270E94D913E5EBF2E02E893F89E217F8
:10308000F30779F73FEFC31AD30A83E0281A310810
:1030900090E6C916D10409F080CE8CE8C82ED12C58
:1030A00055245A94F12CE12C312C95E0292E10E076
:1030B00000E0A3EFA50DAB8BF601E55BF24E3F01FF
:1030C00096012154334E59014E2C470132E0831AA8
:1030D0009108202FE32DE00F90916B01892F8170D3
:1030E000802B79F1F0E0E251F24E849101110EC093
:1030F000AB89A53058F430916701F701329DE00D9E
:10310000F11D1124E453F24EE4918E2B409168019D
:10311000BDE1B515A8F1233009F076C0242F47FF93
:1031200002C021E0240F2595022E000C330B281538
:1031300039050CF480E090916F01892714168CF109
:1031400023C080E0E3CFF3E1F41518F492FDF6CF4D
:1031500064C02DE0241518F491FDF0CF5EC037E077
:10316000341518F496FDEACF58C0A1E04A1631F3A1
:1031700095FDE4CF52C0253018F0990F990B8923A3
:1031800014167CF0233068F0BBE1B51550F0F30164
:10319000E00FF11FE4918E23F501E00FF11FE491A0
:1031A0008E2B0E94D9130F5F1F4F0830110509F0B5
:1031B00090CFE8E03E0EFFEFEF1AFF0A539425E0B0
:1031C000C21AD1083FE1531272CF0E94CB13109262
:1031D0006E0110926F016D960FB6F894DEBF0FBEB0
:1031E000CDBFDF91CF911F910F91FF90EF90DF90B6
:1031F000CF90BF90AF909F908F907F906F905F9097
:103200004F903F902F900895243009F0B4CFE9E11A
:10321000E41508F098CF93FD91CF80E08FCFCF9346
:10322000DF93EC018DE899E10E947A1490916C0192
:10323000983010F09750FCCF8B8120916A01821B4F
:10324000890F181644F490916801981B90936801B7
:103250008FEF80936F0165E779E185EB96E00E943F
:10326000B11260916801062E000C770B85EB96E099
:103270000E9424160E94AD1682E699E1DF91CF915B
:103280000C947A140C9455220F920FB68F939F933F
:10329000EF93FF9380914E018D5F8D3708F08D572E
:1032A00080934E01EFE4F1E080818E4F8083918125
:1032B0009F4F918382818F4F828383818F4F83833E
:1032C000E3E5F1E080818F5F808381818F4F81838F
:1032D00082818F4F828383818F4F83838FB18F60F1
:1032E00066991C9B88278F3681F480914D01981B2D
:1032F000963068F0E0E0F8E087E78083818388E13A
:1033000080936000F0936000FFCF90934D01FF9198
:10331000EF919F918F910FBE0F9018951F920F9272
:103320000FB60F9211248F939F938091E10090919B
:10333000E100937F9093E10083FF0FC01092E900BA
:1033400091E09093EB001092EC0092E39093ED00EB
:103350001092640198E09093F00082FF22C093E005
:103360009093E9009091F200992319F09AE39093D9
:10337000E80090914101992341F0909141019150D1
:1033800090934101911101C05D9A9091630199233D
:1033900041F090916301915090936301911101C0AC
:1033A000289A84FF18C08091E2008E7E816080930D
:1033B000E2008091E1008F7E8093E10080914201E4
:1033C0008E7E8061809342019F918F910F900FBEFE
:1033D0000F901F90189580FFF7CF8091E2008E7EAE
:1033E00080618093E2008091E1008E7E8093E10015
:1033F000809142018E7E8160E5CF1F920F920FB6C1
:103400000F921124CF92DF92EF92FF920F931F93AE
:103410002F933F934F935F936F937F938F939F93DC
:10342000AF93BF93EF93FF93CF93DF93CDB7DEB707
:103430006C97DEBFCDBF1092E9008091E80083FF5A
:1034400025C068E0CE0145960E94E01182EF80938E
:10345000E8008D8987FF39C09091E80090FFFCCF8C
:10346000982F907609F034C19E894F89588D2F8905
:10347000F88C911131C0803861F5809143018093BF
:10348000F1001092F1008EEF8093E8006C960FB679
:10349000F894DEBF0FBECDBFDF91CF91FF91EF91CA
:1034A000BF91AF919F918F917F916F915F914F915C
:1034B0003F912F911F910F91FF90EF90DF90CF9050
:1034C0000F900FBE0F901F9018959EEF9093E800FD
:1034D000C7CF1092F100D5CF913059F48111D3CFDD
:1034E0004130510581F6809143018D7F80934301E6
:1034F000CACF933049F48111C6CF4130510519F636
:10350000809143018260F2CF953041F48091E800D0
:1035100080FFFCCF20682093E300B5CF963009F000
:10352000A9C00B8D1C8D22E01092E90010923F0182
:1035300010923E01F2122EC010923D0110923C01F9
:103540000E94AF111F8299E09983FA8291E09E83D5
:1035500090EA98879AEF998720913E0130913F0138
:10356000275F3F4F3C832B838D831092E90010929D
:103570003F0110923E0110933D0100933C0149E050
:1035800050E0BE016F5F7F4F80E00E9489110E9472
:10359000AF1179CF10933D0100933C010E942F1190
:1035A000DC0112960D911C910115110509F451C110
:1035B000D801ED91FC910480F581E02DBE016B5E98
:1035C0007F4FC8010995009709F03EC1F8010085B9
:1035D0001185EACFF3E0FF120EC08F89882309F42A
:1035E00040C0823061F440E867E08EEB93E10E94D6
:1035F0002F1C811148CF81E28093EB0047CF8130AF
:1036000029F440E86BE082EB93E1F1CF833099F746
:103610000E942F11DC011296ED90FC908E010F5F3D
:103620001F4F6801E114F10479F0D701ED91FC918D
:103630000680F781E02DB801C7010995080F111D1B
:10364000F701E084F184EECFD8011C92F6010190DD
:103650000020E9F73197BF016C197D0940E0C601F0
:10366000C6CF6CE973E1FB01449150E080E80E9411
:10367000891109CF973009F4BECF983021F481E049
:103680008093F10000CF993009F0FDCE837009F0EE
:10369000B2CFEDE0F1E081E031E096E32191222329
:1036A00071F08093E9003093EB00DF0111972C91CA
:1036B0002093EC009093ED008F5F873079F78EE7D1
:1036C0008093EA001092EA008F8980936401DBCE38
:1036D0008B8D9C8D1092E90010923F0110923E015B
:1036E00090933D0180933C01898D811192C08E8918
:1036F0009D89913A49F4813209F07DCF47E050E04D
:1037000064E071E080E0B3CF913209F074CF83328E
:1037100069F48F89988DB0E0A0E0809300019093C8
:103720000101A0930201B0930301ADCE803269F490
:103730008091E80082FFFCCF67E084E091E00E9486
:10374000E0118BEF8093E8009ECE823209F09BCE91
:103750008F8980930B01EEEFFFE7859194918B3F6A
:103760009C4D51F1E0E0F8E0809104019091050159
:10377000A0910601B0910701803B9440A105B105DD
:10378000F1F480910B0180FD1AC0EE3F8AE0F8074A
:1037900089F587E797E79183808380916000809324
:1037A000400188E19BE00FB6F894A89580936000F3
:1037B0000FBE9093600067CEEEEFFAE0D5CF808128
:1037C00091818737974709F05ECEA8958091600078
:1037D0008861809360008091400180936000EE3F9B
:1037E0002AE0F20789F08091FE0A9091FF0A918306
:1037F000808349CE808191818737980751F29093D9
:10380000FF0A8093FE0AC5CF1092FF0A1092FE0AAB
:103810003ACE0E942F11DC0112960D911C910115D8
:10382000110509F4E8CED801ED91FC910190F081E9
:10383000E02DBE016B5E7F4FC8010995811123CE3B
:10384000F80100851185EBCF181619060CF41BCE74
:10385000D2CEF1E0FF12BECE60EA73E104CFEF9268
:10386000FF920F931F93CF93DF93F82E192FE62E1D
:10387000042F81E0860F880F0E945B1183E00E9475
:103880005B11CF2DD12FEC0EFD2EF11CCE15DF05D7
:10389000B9F007FF13C0FE0184910E945B11182F3D
:1038A00080E00E945B11812321968111EFCFDF918F
:1038B000CF911F910F91FF90EF9008958881EDCFE8
:1038C00081E0F5CFE5EBF6E01382128288EE93E01B
:1038D000A0E0B0E084839583A683B78387E191E07D
:1038E000918380838FEF9FEF95878487E5E0F7E0F2
:1038F0001382128289E291E0918380830895CDB78B
:10390000DEB72797DEBFCDBF789483E084BD83E028
:1039100085BD81E080936E00E1E8F0E083E0808384
:10392000E0E881E08083E1E983E08083E0E981E011
:103930008083E1EC87E08083E3EC81E08083E0EC4E
:1039400082E08083E2EC81E08083EAE787E08083A5
:1039500080688083109264011092430110924201AA
:103960008091D70081608093D70080EA8093D8004F
:1039700089B5806189BD89B5826089BD09B400FEC1
:10398000FDCF0E9402118091D8008F7C80618093CE
:10399000D8008091E000807F8093E0008091E1007A
:1039A0008E7E8093E1008DE08093E200559A209A0C
:1039B00081EC80937C0085B1806F85B984B1877E6E
:1039C00084B984B1876E84B95E9A5F988AB1806D3C
:1039D0008AB9769A6E9881B3806F81BB899880B3DB
:1039E0008D7080BB80E58CBD81E08DBD85E090E071
:1039F0000E943D135F9A85E090E00E943D135E981F
:103A00005C98E6E7F4E186E894E124912EBD00009D
:103A10000DB407FEFDCF31968E179F07B1F75C9A64
:103A200081E88093640080916500816080936500E7
:103A30000E94CB1380E80E94C013882381F05C9819
:103A400085EA8EBD00000DB407FEFDCF5C9A2E986E
:103A50002F982D9881E083BF889513BEFCCF84E01A
:103A60000E94C013882309F448C02D9884E80E945E
:103A7000C0138823E1F00E943B1388EC90E00E9481
:103A80003D132F9882E090E00E9455228F3F29F04D
:103A90006FEF82E090E00E945D2284EF91E00E944F
:103AA0003D132F9A84E80E94C0138111FBCF84E15B
:103AB0000E94C0138823E1F00E943B1388EC90E041
:103AC0000E943D132E9882E090E00E9455228823A8
:103AD00029F060E082E090E00E945D2284EF91E0B6
:103AE0000E943D132E9A84E10E94C0138111FBCFE6
:103AF00088EC90E00E943D13B2CF0E943B1382E01D
:103B000090E00E944219882309F4C6C03E9A3F9A69
:103B100081E090E00E944219382F3470732E81FFAB
:103B200011C031112E9801EF1FEFE8E0EE2EF12CBD
:103B300080E40E94C013882309F4B1C02E9A2F9A02
:103B40000E943B1382E390E00E943D130E944213C7
:103B50008111F8CF109290008AE0809391008FEF4E
:103B60009FEF9093C2068093C10685EB92E09093FD
:103B70004C0180934B0181E080934A0110924901EE
:103B80001092480190E5A92EBB24B39422EA222E7C
:103B900027E1322E7724739466246A9483E0582EAA
:103BA000A5E6B1E0F5011D923197E9F77092650144
:103BB00070926601709267018CE080936801509268
:103BC000690140E051E062E678E181E791E00E941E
:103BD0004C224CE350E066E278E181E792E00E94FB
:103BE0004C228BE098E10E94D41386E090E00E9482
:103BF000361681EF97E10E94D4138CE390E00E9487
:103C000036168CED97E10E94D41380E591E00E9476
:103C1000361601E712E0D80111968C911197EC91BC
:103C2000F0E0EB59FE4F848789EC97E10E94D413B2
:103C3000F80181810E947F148BEB97E10E94D413DD
:103C4000D8018C9190E00E9436160A5F1F4FB2E0B7
:103C50000D3A1B0701F70E94031588E0809370015D
:103C60008091680118160CF0F8C380916B0185FFF4
:103C700003C0EAE0E093690186FD50926A010E9468
:103C8000AD160E940315D0907001DD2009F4C6C066
:103C9000DA94D0927001E4CF3E983F9839CF7720E4
:103CA00029F00430110511F42E9A2F9881E00E941A
:103CB000B50F980117FF04C022273327201B310BB3
:103CC00027703327C80117FD079673E095958795F0
:103CD0007A95E1F717FF05C00197A701421B530B27
:103CE0009A01AC015695542F4427579547954B544C
:103CF0005D4FB0E0A0E02701421A530A8E3F6FEFFC
:103D0000960709F43BC05A01E4E9AE0EB11C6A0102
:103D100070E060E0FD01EA53FC4E4F018F3F9807D1
:103D200079F0F401E60FF71FE491F0E01F01022E95
:103D300001C0220C0A94EAF7F60164882628248A36
:103D40002115310581F0F401E60FF71FE491F0E051
:103D50001F01042C02C0359427940A94E2F7F50160
:103D60006080262820826F5F7F4FFFEFAF1ABF0A67
:103D7000EFEFCE1ADE0A6835710581F60196A85A72
:103D8000BF4F40585F4FA03BB10509F0B7CF0E942D
:103D9000CB138FE090E00E943D130F5F1F4F09315E
:103DA000110509F0C5CE772011F02F9A2D9880E9E2
:103DB00091E00E943D130E943B1381E090E00E943D
:103DC000421980FFBFCE8AE090E00E9442199FEF27
:103DD000980F9E3F08F0B6CE22E330E030934701C3
:103DE0002093460128E330E03093450120934401BD
:103DF0000BE010E0682F85E097E00E944A13C801AD
:103E00000E9442190F5F1F4F0131110599F70E945F
:103E1000CB1388EE93E00E943D1394CE009167018E
:103E200020E041E060916601809165010E9492105E
:103E30007C0180916D0190916E01892B90916F01B1
:103E4000892B10926D01882369F090916B0194FF8A
:103E5000FDC220916C01293008F4E3C22850FBCF49
:103E60001111F3CF00916D0180916C018F5F8093F0
:103E70006C0180E20E94C013182F81112CC011E048
:103E8000011101C010E080E40E94C013082F8823B4
:103E900049F0809167018F5F8370809367010E9472
:103EA000CE13102F80E80E94C013982E882309F1AA
:103EB000D7018C9183FD4DC00E94CE130E94CE137A
:103EC000809167018130D9F178F08230F1F18091F1
:103ED0006501815037C08091670181508370809364
:103EE00067010E94CE13CFCF8091660181508093ED
:103EF000660180E10E94C013C82E882309F4C4C063
:103F00000091670120E04FEF6091660180916501AB
:103F10000E949210FC01808183FDB0C00E94CE13EC
:103F20000E94CE1380916701813009F49DC0C8F0D2
:103F3000823009F49FC0809165018F5F98C08091A5
:103F400065018F5F80936501D4CF809166018F5F9B
:103F5000CECF64E670E080E090E00E944311912CA7
:103F6000C8CF809166018F5F8093660166E671E03D
:103F700085E691E00E947B10CC2009F48EC087EA90
:103F800097E10E94D41380916501082E000C990BD3
:103F90000E94A81684EA97E10E94D41380916601DA
:103FA000082E000C990B0E94A81682EA97E10E9445
:103FB0007A1402E917E144E050E0B801CE0101961D
:103FC0000E944C222A8180916601F0E18F02C0019B
:103FD000112430916501830F911D37FD9A952817A3
:103FE0001906D9F56CE577E185EB96E00E94B112F0
:103FF000898161E577E1813011F069E477E185EB52
:1040000096E00E94681466E377E185EB96E00E94F3
:10401000B1128B810E94B51463E377E185EB96E0E2
:104020000E94B1128C810E94B51461E377E185EBA7
:1040300096E00E94681485EB96E00E9464148981E2
:104040009B81813019F5909365018C818093660185
:1040500080916B0182FD60926D010C5F1F4F2016F5
:10406000310609F0A8CFF1CE80916501815080938F
:1040700065017CCF80916601815076CF64E670E067
:1040800080E090E00E944311C92C70CF80916701BD
:10409000890F837080936701DBCF88E00E94C01393
:1040A000882309F4DDCED7014C900E94031569E8FE
:1040B00077E185EB96E00E94B112842D0E947F1477
:1040C00085EB96E00E94641442FEB8C08701015758
:1040D00011400F8387E197E10E94D413802F8F70E6
:1040E000C82ED12CC6010E94A81684E197E10E9437
:1040F000D41302950F70802E912CC4010E94A81633
:1041000080E197E10E947A1401E712E0F8018081D2
:10411000FF81F81323C08FEF96E10E947A14C80143
:104120000E943B16D80114968C91882319F0C8017F
:104130000E940F198091680118160CF04DC08DEB8C
:1041400096E10E947A1482EA96E10115110599F12F
:1041500080916C018830E8F08750FCCF0A5F1F4FD8
:1041600032E00D3A130790F282ED96E10E94D413EB
:10417000C6010E94A8168FEC96E10E94D413C401D8
:104180000E94A8168DEC96E10E947A1410E000E0DF
:10419000C9CF2091690190E0820F911D27FD9A956A
:1041A000F8019281981B928360926E01C8010E946F
:1041B0003B1682E996E10E947A1488E00E94C013BF
:1041C000882331F080916C018F5F80936C01F5CF73
:1041D0000E94AD160E94AD16D80112968C911297CE
:1041E0001816ECF414968C91811109C06AEF70E0F6
:1041F00080E090E00E944311C8010E940F190E94C4
:1042000003156EE677E185EB96E00E94B112842DEE
:104210000E947F1485EB96E00E94641416CE87E717
:1042200097E10E947A14F701108280916B01D80106
:1042300015969C91892B80936B01E1CF04E116E1E7
:10424000B42DBC7FCB2E46E050E0B801CE010196E4
:104250000E944C22898190E08F589E4FE816F90603
:1042600009F0D8C08A81C812D5C06BEF75E185EB23
:1042700096E00E94B1128D2D0E94B51469EF75E190
:1042800085EB96E00E94681468EE75E185EB96E098
:104290000E94681460ED75E185EB96E00E94B11212
:1042A00089810E94BE1468EB75E185EB96E00E945F
:1042B000B1128A810E947F1485EB96E00E946414FB
:1042C00060EA75E185EB96E00E94B1128B810E9455
:1042D0007F1485EB96E00E94641468E875E185EB35
:1042E00096E00E94B1128C810E947F1485EB96E0CB
:1042F0000E94641460E775E185EB96E00E94B112BC
:104300008D810E94BE1468E575E185EB96E00E9400
:10431000B1128E810E947F1485EB96E00E94641496
:1043200085EB96E00E946414E8E3CE1609F461C0C0
:10433000F0E8CF126AC08CE495E10E947A148C8177
:1043400090916B01982B90936B01823061F4E1E7BF
:10435000F1E09191903119F4DF0111971C9232E054
:10436000E137F307B0F380FF04C089E395E10E94D1
:104370007A148C8181FF04C089E195E10E947A144E
:104380008C8182FF04C08AEF94E10E947A148C81B0
:1043900083FF04C08BEE94E10E947A148C8184FF29
:1043A00004C089ED94E10E947A148C8185FF04C0D9
:1043B0008CEB94E10E947A148C8186FF04C083EA1E
:1043C00094E10E947A148C8187FF04C086E894E10E
:1043D0000E947A148A81481A8B81482AF701408208
:1043E000ED81F0E0EB59FE4F8E8184870E9403152A
:1043F0002CCD80916B0183FFF9CFD7011C92809166
:104400006B01877F80936B01E5CF80916B019C816D
:10441000892BF8CFD3940A5F1F4FF5E1DF1213CF3A
:1044200014CD80916801885F820F8093680190515C
:1044300090936B0168E270E080E090E00E9443118D
:1044400064E170E080E090E00E94431168EC70E06D
:1044500080E090E00E94431103CC8091700188308D
:1044600030F48F5F809370010E94AD16F6CFA5E601
:10447000B1E0F5011D923197E9F70E94AD1688E091
:104480000E94C0138823D9F380E090E0892B09F4BF
:1044900087CB0E94000082CBFB01DC0102C00590AB
:1044A0000D9241505040D8F70895F999FECF92BD32
:1044B00081BDF89A992780B50895262FF999FECFE6
:1044C0001FBA92BD81BD20BD0FB6F894FA9AF99A31
:1044D0000FBE01960895A1E21A2EAA1BBB1BFD0177
:1044E0000DC0AA1FBB1FEE1FFF1FA217B307E407D3
:1044F000F50720F0A21BB30BE40BF50B661F771F2B
:10450000881F991F1A9469F760957095809590950A
:104510009B01AC01BD01CF010895EE0FFF1F059077
:0A452000F491E02D0994F894FFCF08
:10452A00FFFFFFFF00E100000000000000C18081E2
:10453A00000000000000009B121A12DB12D01221A8
:10454A0013DF12FD12000000004A13ED110B140ACA
:0C455A00140D0A006E6F007965730000FC
:00000001FF
